{
  "contractName": "Wallet",
  "abi": [
    {
      "anonymous": false,
      "inputs": [
        {
          "indexed": true,
          "internalType": "address",
          "name": "from",
          "type": "address"
        },
        {
          "indexed": false,
          "internalType": "uint256",
          "name": "value",
          "type": "uint256"
        }
      ],
      "name": "FundsDeposited",
      "type": "event"
    },
    {
      "anonymous": false,
      "inputs": [
        {
          "indexed": true,
          "internalType": "address",
          "name": "from",
          "type": "address"
        },
        {
          "indexed": true,
          "internalType": "address",
          "name": "to",
          "type": "address"
        },
        {
          "indexed": false,
          "internalType": "uint256",
          "name": "value",
          "type": "uint256"
        }
      ],
      "name": "FundsTransferred",
      "type": "event"
    },
    {
      "anonymous": false,
      "inputs": [
        {
          "indexed": false,
          "internalType": "string",
          "name": "username",
          "type": "string"
        }
      ],
      "name": "UserRegistered",
      "type": "event"
    },
    {
      "inputs": [
        {
          "internalType": "string",
          "name": "_username",
          "type": "string"
        },
        {
          "internalType": "string",
          "name": "_password",
          "type": "string"
        }
      ],
      "name": "register",
      "outputs": [],
      "stateMutability": "nonpayable",
      "type": "function"
    },
    {
      "inputs": [
        {
          "internalType": "string",
          "name": "_username",
          "type": "string"
        }
      ],
      "name": "userExists",
      "outputs": [
        {
          "internalType": "bool",
          "name": "",
          "type": "bool"
        }
      ],
      "stateMutability": "view",
      "type": "function",
      "constant": true
    },
    {
      "inputs": [],
      "name": "depositFunds",
      "outputs": [],
      "stateMutability": "payable",
      "type": "function",
      "payable": true
    },
    {
      "inputs": [
        {
          "internalType": "address payable",
          "name": "_to",
          "type": "address"
        },
        {
          "internalType": "uint256",
          "name": "_amount",
          "type": "uint256"
        },
        {
          "internalType": "string",
          "name": "_password",
          "type": "string"
        }
      ],
      "name": "transferFunds",
      "outputs": [],
      "stateMutability": "nonpayable",
      "type": "function"
    }
  ],
  "bytecode": "0x608060405234801561001057600080fd5b50610916806100206000396000f3fe60806040526004361061003f5760003560e01c80633ffbd47f1461004457806358a6f9ba1461006d578063e2c41dbc14610096578063fddc968e146100a0575b600080fd5b34801561005057600080fd5b5061006b600480360381019061006691906104dd565b6100dd565b005b34801561007957600080fd5b50610094600480360381019061008f9190610435565b6101bb565b005b61009e61031f565b005b3480156100ac57600080fd5b506100c760048036038101906100c2919061049c565b61036f565b6040516100d491906106a8565b60405180910390f35b6000826040516100ed9190610691565b908152602001604051809103902060009054906101000a900460ff1615610149576040517f08c379a000000000000000000000000000000000000000000000000000000000815260040161014090610725565b60405180910390fd5b600160008360405161015b9190610691565b908152602001604051809103902060006101000a81548160ff0219169083151502179055507f270ff4b111e5baa49283562af127cc5ea74e9d6c9efd5465578bd9223d5843f0826040516101af91906106c3565b60405180910390a15050565b600073ffffffffffffffffffffffffffffffffffffffff168373ffffffffffffffffffffffffffffffffffffffff16141561022b576040517f08c379a0000000000000000000000000000000000000000000000000000000008152600401610222906106e5565b60405180910390fd5b8147101561026e576040517f08c379a000000000000000000000000000000000000000000000000000000000815260040161026590610705565b60405180910390fd5b8273ffffffffffffffffffffffffffffffffffffffff166108fc839081150290604051600060405180830381858888f193505050501580156102b4573d6000803e3d6000fd5b508273ffffffffffffffffffffffffffffffffffffffff163373ffffffffffffffffffffffffffffffffffffffff167f78e6250172d8e0a57d8d41f480f13581571a2d27bb2a93f5f7bd2511f5c22a6c846040516103129190610745565b60405180910390a3505050565b3373ffffffffffffffffffffffffffffffffffffffff167f543ba50a5eec5e6178218e364b1d0f396157b3c8fa278522c2cb7fd99407d474346040516103659190610745565b60405180910390a2565b600080826040516103809190610691565b908152602001604051809103902060009054906101000a900460ff169050919050565b60006103b66103b184610791565b610760565b9050828152602081018484840111156103ce57600080fd5b6103d9848285610830565b509392505050565b6000813590506103f0816108b2565b92915050565b600082601f83011261040757600080fd5b81356104178482602086016103a3565b91505092915050565b60008135905061042f816108c9565b92915050565b60008060006060848603121561044a57600080fd5b6000610458868287016103e1565b935050602061046986828701610420565b925050604084013567ffffffffffffffff81111561048657600080fd5b610492868287016103f6565b9150509250925092565b6000602082840312156104ae57600080fd5b600082013567ffffffffffffffff8111156104c857600080fd5b6104d4848285016103f6565b91505092915050565b600080604083850312156104f057600080fd5b600083013567ffffffffffffffff81111561050a57600080fd5b610516858286016103f6565b925050602083013567ffffffffffffffff81111561053357600080fd5b61053f858286016103f6565b9150509250929050565b610552816107fa565b82525050565b6000610563826107c1565b61056d81856107cc565b935061057d81856020860161083f565b610586816108a1565b840191505092915050565b600061059c826107c1565b6105a681856107dd565b93506105b681856020860161083f565b80840191505092915050565b60006105cf600f836107cc565b91507f496e76616c6964206164647265737300000000000000000000000000000000006000830152602082019050919050565b600061060f6014836107cc565b91507f496e73756666696369656e742062616c616e63650000000000000000000000006000830152602082019050919050565b600061064f6013836107cc565b91507f5573657220616c726561647920657869737473000000000000000000000000006000830152602082019050919050565b61068b81610826565b82525050565b600061069d8284610591565b915081905092915050565b60006020820190506106bd6000830184610549565b92915050565b600060208201905081810360008301526106dd8184610558565b905092915050565b600060208201905081810360008301526106fe816105c2565b9050919050565b6000602082019050818103600083015261071e81610602565b9050919050565b6000602082019050818103600083015261073e81610642565b9050919050565b600060208201905061075a6000830184610682565b92915050565b6000604051905081810181811067ffffffffffffffff8211171561078757610786610872565b5b8060405250919050565b600067ffffffffffffffff8211156107ac576107ab610872565b5b601f19601f8301169050602081019050919050565b600081519050919050565b600082825260208201905092915050565b600081905092915050565b60006107f382610806565b9050919050565b60008115159050919050565b600073ffffffffffffffffffffffffffffffffffffffff82169050919050565b6000819050919050565b82818337600083830152505050565b60005b8381101561085d578082015181840152602081019050610842565b8381111561086c576000848401525b50505050565b7f4e487b7100000000000000000000000000000000000000000000000000000000600052604160045260246000fd5b6000601f19601f8301169050919050565b6108bb816107e8565b81146108c657600080fd5b50565b6108d281610826565b81146108dd57600080fd5b5056fea26469706673582212200d45ac7960144f3c8ad2afb5bfb2bcd4e0cf731458dcc67c017eeb918b09d93b64736f6c63430008000033",
  "immutableReferences": {},
  "source": "// SPDX-License-Identifier: MIT\r\npragma solidity ^0.8.0;\r\n\r\ncontract Wallet {\r\n    struct User {\r\n        string username;\r\n        string password;\r\n    }\r\n\r\n    mapping(string => bool) private users;\r\n\r\n    event UserRegistered(string username);\r\n    event FundsDeposited(address indexed from, uint256 value);\r\n    event FundsTransferred(address indexed from, address indexed to, uint256 value);\r\n\r\n    function register(string memory _username, string memory _password) public {\r\n        require(!users[_username], \"User already exists\");\r\n        users[_username] = true;\r\n        // Additional logic to store the password (hashed or otherwise)\r\n        emit UserRegistered(_username);\r\n    }\r\n\r\n    function userExists(string memory _username) public view returns (bool) {\r\n        return users[_username];\r\n    }\r\n\r\n    function depositFunds() public payable {\r\n        emit FundsDeposited(msg.sender, msg.value);\r\n    }\r\n\r\n    function transferFunds(address payable _to, uint256 _amount, string memory _password) public {\r\n        // Add logic to verify the password and transfer funds\r\n        require(_to != address(0), \"Invalid address\");\r\n        require(address(this).balance >= _amount, \"Insufficient balance\");\r\n        \r\n        _to.transfer(_amount);\r\n        emit FundsTransferred(msg.sender, _to, _amount);\r\n    }\r\n}\r\n",
  "sourcePath": "C:\\Users\\91965\\Downloads\\FarmEasy-master\\contracts\\Wallet.sol",
  "compiler": {
    "name": "solc",
    "version": "0.8.0+commit.c7dfd78e.Emscripten.clang"
  },
  "schemaVersion": "3.4.16",
  "updatedAt": "2024-06-19T10:00:57.322Z",
  "networkType": "ethereum",
  "devdoc": {
    "kind": "dev",
    "methods": {},
    "version": 1
  },
  "userdoc": {
    "kind": "user",
    "methods": {},
    "version": 1
  }
}